{
  "contractName": "CharityDonation",
  "abi": [
    {
      "inputs": [],
      "stateMutability": "nonpayable",
      "type": "constructor"
    },
    {
      "anonymous": false,
      "inputs": [
        {
          "indexed": true,
          "internalType": "uint256",
          "name": "campaignId",
          "type": "uint256"
        },
        {
          "indexed": false,
          "internalType": "string",
          "name": "name",
          "type": "string"
        },
        {
          "indexed": false,
          "internalType": "uint256",
          "name": "goalAmount",
          "type": "uint256"
        },
        {
          "indexed": true,
          "internalType": "address",
          "name": "charityAddress",
          "type": "address"
        }
      ],
      "name": "CampaignCreated",
      "type": "event"
    },
    {
      "anonymous": false,
      "inputs": [
        {
          "indexed": true,
          "internalType": "uint256",
          "name": "campaignId",
          "type": "uint256"
        },
        {
          "indexed": false,
          "internalType": "uint256",
          "name": "totalRaised",
          "type": "uint256"
        },
        {
          "indexed": false,
          "internalType": "uint256",
          "name": "timestamp",
          "type": "uint256"
        }
      ],
      "name": "CampaignGoalReached",
      "type": "event"
    },
    {
      "anonymous": false,
      "inputs": [
        {
          "indexed": true,
          "internalType": "uint256",
          "name": "donationId",
          "type": "uint256"
        },
        {
          "indexed": true,
          "internalType": "uint256",
          "name": "campaignId",
          "type": "uint256"
        },
        {
          "indexed": true,
          "internalType": "address",
          "name": "donor",
          "type": "address"
        },
        {
          "indexed": false,
          "internalType": "uint256",
          "name": "amount",
          "type": "uint256"
        },
        {
          "indexed": false,
          "internalType": "string",
          "name": "message",
          "type": "string"
        },
        {
          "indexed": false,
          "internalType": "uint256",
          "name": "timestamp",
          "type": "uint256"
        }
      ],
      "name": "DonationReceived",
      "type": "event"
    },
    {
      "anonymous": false,
      "inputs": [
        {
          "indexed": true,
          "internalType": "address",
          "name": "charityAddress",
          "type": "address"
        },
        {
          "indexed": false,
          "internalType": "uint256",
          "name": "amount",
          "type": "uint256"
        },
        {
          "indexed": false,
          "internalType": "uint256",
          "name": "campaignId",
          "type": "uint256"
        },
        {
          "indexed": false,
          "internalType": "uint256",
          "name": "timestamp",
          "type": "uint256"
        }
      ],
      "name": "FundsWithdrawn",
      "type": "event"
    },
    {
      "anonymous": false,
      "inputs": [
        {
          "indexed": true,
          "internalType": "address",
          "name": "userAddress",
          "type": "address"
        },
        {
          "indexed": false,
          "internalType": "string",
          "name": "username",
          "type": "string"
        },
        {
          "indexed": false,
          "internalType": "uint256",
          "name": "timestamp",
          "type": "uint256"
        }
      ],
      "name": "UserRegistered",
      "type": "event"
    },
    {
      "inputs": [],
      "name": "campaignCount",
      "outputs": [
        {
          "internalType": "uint256",
          "name": "",
          "type": "uint256"
        }
      ],
      "stateMutability": "view",
      "type": "function"
    },
    {
      "inputs": [
        {
          "internalType": "uint256",
          "name": "",
          "type": "uint256"
        }
      ],
      "name": "campaigns",
      "outputs": [
        {
          "internalType": "uint256",
          "name": "id",
          "type": "uint256"
        },
        {
          "internalType": "string",
          "name": "name",
          "type": "string"
        },
        {
          "internalType": "string",
          "name": "category",
          "type": "string"
        },
        {
          "internalType": "string",
          "name": "description",
          "type": "string"
        },
        {
          "internalType": "address payable",
          "name": "charityAddress",
          "type": "address"
        },
        {
          "internalType": "uint256",
          "name": "goalAmount",
          "type": "uint256"
        },
        {
          "internalType": "uint256",
          "name": "raisedAmount",
          "type": "uint256"
        },
        {
          "internalType": "uint256",
          "name": "createdAt",
          "type": "uint256"
        },
        {
          "internalType": "bool",
          "name": "active",
          "type": "bool"
        }
      ],
      "stateMutability": "view",
      "type": "function"
    },
    {
      "inputs": [],
      "name": "donationCount",
      "outputs": [
        {
          "internalType": "uint256",
          "name": "",
          "type": "uint256"
        }
      ],
      "stateMutability": "view",
      "type": "function"
    },
    {
      "inputs": [
        {
          "internalType": "uint256",
          "name": "",
          "type": "uint256"
        }
      ],
      "name": "donations",
      "outputs": [
        {
          "internalType": "uint256",
          "name": "id",
          "type": "uint256"
        },
        {
          "internalType": "address",
          "name": "donor",
          "type": "address"
        },
        {
          "internalType": "uint256",
          "name": "campaignId",
          "type": "uint256"
        },
        {
          "internalType": "uint256",
          "name": "amount",
          "type": "uint256"
        },
        {
          "internalType": "string",
          "name": "message",
          "type": "string"
        },
        {
          "internalType": "uint256",
          "name": "timestamp",
          "type": "uint256"
        },
        {
          "internalType": "bool",
          "name": "processed",
          "type": "bool"
        }
      ],
      "stateMutability": "view",
      "type": "function"
    },
    {
      "inputs": [],
      "name": "owner",
      "outputs": [
        {
          "internalType": "address",
          "name": "",
          "type": "address"
        }
      ],
      "stateMutability": "view",
      "type": "function"
    },
    {
      "inputs": [
        {
          "internalType": "address",
          "name": "",
          "type": "address"
        }
      ],
      "name": "registeredUsers",
      "outputs": [
        {
          "internalType": "bool",
          "name": "",
          "type": "bool"
        }
      ],
      "stateMutability": "view",
      "type": "function"
    },
    {
      "inputs": [],
      "name": "totalDonationsReceived",
      "outputs": [
        {
          "internalType": "uint256",
          "name": "",
          "type": "uint256"
        }
      ],
      "stateMutability": "view",
      "type": "function"
    },
    {
      "inputs": [],
      "name": "totalDonors",
      "outputs": [
        {
          "internalType": "uint256",
          "name": "",
          "type": "uint256"
        }
      ],
      "stateMutability": "view",
      "type": "function"
    },
    {
      "inputs": [
        {
          "internalType": "address",
          "name": "",
          "type": "address"
        },
        {
          "internalType": "uint256",
          "name": "",
          "type": "uint256"
        }
      ],
      "name": "userDonations",
      "outputs": [
        {
          "internalType": "uint256",
          "name": "",
          "type": "uint256"
        }
      ],
      "stateMutability": "view",
      "type": "function"
    },
    {
      "inputs": [
        {
          "internalType": "address",
          "name": "",
          "type": "address"
        }
      ],
      "name": "users",
      "outputs": [
        {
          "internalType": "address",
          "name": "walletAddress",
          "type": "address"
        },
        {
          "internalType": "string",
          "name": "username",
          "type": "string"
        },
        {
          "internalType": "uint256",
          "name": "totalDonated",
          "type": "uint256"
        },
        {
          "internalType": "uint256",
          "name": "donationCount",
          "type": "uint256"
        },
        {
          "internalType": "uint256",
          "name": "joinedAt",
          "type": "uint256"
        }
      ],
      "stateMutability": "view",
      "type": "function"
    },
    {
      "stateMutability": "payable",
      "type": "receive"
    },
    {
      "inputs": [
        {
          "internalType": "string",
          "name": "_username",
          "type": "string"
        }
      ],
      "name": "registerUser",
      "outputs": [],
      "stateMutability": "nonpayable",
      "type": "function"
    },
    {
      "inputs": [
        {
          "internalType": "address",
          "name": "_userAddress",
          "type": "address"
        }
      ],
      "name": "getUser",
      "outputs": [
        {
          "components": [
            {
              "internalType": "address",
              "name": "walletAddress",
              "type": "address"
            },
            {
              "internalType": "string",
              "name": "username",
              "type": "string"
            },
            {
              "internalType": "uint256",
              "name": "totalDonated",
              "type": "uint256"
            },
            {
              "internalType": "uint256",
              "name": "donationCount",
              "type": "uint256"
            },
            {
              "internalType": "uint256",
              "name": "joinedAt",
              "type": "uint256"
            }
          ],
          "internalType": "struct CharityDonation.User",
          "name": "",
          "type": "tuple"
        }
      ],
      "stateMutability": "view",
      "type": "function"
    },
    {
      "inputs": [
        {
          "internalType": "string",
          "name": "_name",
          "type": "string"
        },
        {
          "internalType": "string",
          "name": "_category",
          "type": "string"
        },
        {
          "internalType": "string",
          "name": "_description",
          "type": "string"
        },
        {
          "internalType": "address payable",
          "name": "_charityAddress",
          "type": "address"
        },
        {
          "internalType": "uint256",
          "name": "_goalAmount",
          "type": "uint256"
        }
      ],
      "name": "createCampaign",
      "outputs": [],
      "stateMutability": "nonpayable",
      "type": "function"
    },
    {
      "inputs": [
        {
          "internalType": "uint256",
          "name": "_campaignId",
          "type": "uint256"
        }
      ],
      "name": "getCampaign",
      "outputs": [
        {
          "components": [
            {
              "internalType": "uint256",
              "name": "id",
              "type": "uint256"
            },
            {
              "internalType": "string",
              "name": "name",
              "type": "string"
            },
            {
              "internalType": "string",
              "name": "category",
              "type": "string"
            },
            {
              "internalType": "string",
              "name": "description",
              "type": "string"
            },
            {
              "internalType": "address payable",
              "name": "charityAddress",
              "type": "address"
            },
            {
              "internalType": "uint256",
              "name": "goalAmount",
              "type": "uint256"
            },
            {
              "internalType": "uint256",
              "name": "raisedAmount",
              "type": "uint256"
            },
            {
              "internalType": "uint256",
              "name": "createdAt",
              "type": "uint256"
            },
            {
              "internalType": "bool",
              "name": "active",
              "type": "bool"
            }
          ],
          "internalType": "struct CharityDonation.Campaign",
          "name": "",
          "type": "tuple"
        }
      ],
      "stateMutability": "view",
      "type": "function"
    },
    {
      "inputs": [
        {
          "internalType": "uint256",
          "name": "_campaignId",
          "type": "uint256"
        }
      ],
      "name": "deactivateCampaign",
      "outputs": [],
      "stateMutability": "nonpayable",
      "type": "function"
    },
    {
      "inputs": [
        {
          "internalType": "uint256",
          "name": "_campaignId",
          "type": "uint256"
        },
        {
          "internalType": "string",
          "name": "_message",
          "type": "string"
        }
      ],
      "name": "donate",
      "outputs": [],
      "stateMutability": "payable",
      "type": "function"
    },
    {
      "inputs": [
        {
          "internalType": "uint256",
          "name": "_donationId",
          "type": "uint256"
        }
      ],
      "name": "getDonation",
      "outputs": [
        {
          "components": [
            {
              "internalType": "uint256",
              "name": "id",
              "type": "uint256"
            },
            {
              "internalType": "address",
              "name": "donor",
              "type": "address"
            },
            {
              "internalType": "uint256",
              "name": "campaignId",
              "type": "uint256"
            },
            {
              "internalType": "uint256",
              "name": "amount",
              "type": "uint256"
            },
            {
              "internalType": "string",
              "name": "message",
              "type": "string"
            },
            {
              "internalType": "uint256",
              "name": "timestamp",
              "type": "uint256"
            },
            {
              "internalType": "bool",
              "name": "processed",
              "type": "bool"
            }
          ],
          "internalType": "struct CharityDonation.Donation",
          "name": "",
          "type": "tuple"
        }
      ],
      "stateMutability": "view",
      "type": "function"
    },
    {
      "inputs": [
        {
          "internalType": "address",
          "name": "_userAddress",
          "type": "address"
        }
      ],
      "name": "getUserDonations",
      "outputs": [
        {
          "internalType": "uint256[]",
          "name": "",
          "type": "uint256[]"
        }
      ],
      "stateMutability": "view",
      "type": "function"
    },
    {
      "inputs": [
        {
          "internalType": "uint256",
          "name": "_campaignId",
          "type": "uint256"
        }
      ],
      "name": "withdrawFunds",
      "outputs": [],
      "stateMutability": "nonpayable",
      "type": "function"
    },
    {
      "inputs": [],
      "name": "getContractBalance",
      "outputs": [
        {
          "internalType": "uint256",
          "name": "",
          "type": "uint256"
        }
      ],
      "stateMutability": "view",
      "type": "function"
    },
    {
      "inputs": [],
      "name": "getContractStats",
      "outputs": [
        {
          "internalType": "uint256",
          "name": "_totalDonations",
          "type": "uint256"
        },
        {
          "internalType": "uint256",
          "name": "_totalDonors",
          "type": "uint256"
        },
        {
          "internalType": "uint256",
          "name": "_activeCampaigns",
          "type": "uint256"
        },
        {
          "internalType": "uint256",
          "name": "_contractBalance",
          "type": "uint256"
        }
      ],
      "stateMutability": "view",
      "type": "function"
    }
  ],
  "bytecode": "0x608060405234801561001057600080fd5b50600080546001600160a01b0319163317815560088190556009819055600181905560025561229a806100446000396000f3fe60806040526004361061012e5760003560e01c8063704f1b94116100ab5780638d59d1f11161006f5780638d59d1f1146103565780638da5cb5b14610369578063a87430ba146103a1578063dfe6b5d6146103d2578063ef07a81f14610407578063f8626af81461043457600080fd5b8063704f1b94146102bd5780637274e30d146102dd578063732435b2146102f35780637eca30fe14610320578063862e2fc81461034057600080fd5b80632abfab4d116100f25780632abfab4d1461021a5780634933e631146102305780635598f8cc146102505780636f77926b1461027d5780636f9fb98a146102aa57600080fd5b8063044e64ec1461013a5780630e50cee51461015c578063141961bc146101a1578063155dd5ee146101d657806325c302e4146101f657600080fd5b3661013557005b600080fd5b34801561014657600080fd5b5061015a610155366004611b08565b610467565b005b34801561016857600080fd5b5061018c610177366004611bbf565b60076020526000908152604090205460ff1681565b60405190151581526020015b60405180910390f35b3480156101ad57600080fd5b506101c16101bc366004611be3565b610796565b60405161019899989796959493929190611c42565b3480156101e257600080fd5b5061015a6101f1366004611be3565b610983565b34801561020257600080fd5b5061020c60025481565b604051908152602001610198565b34801561022657600080fd5b5061020c60095481565b34801561023c57600080fd5b5061020c61024b366004611cbd565b610bc8565b34801561025c57600080fd5b5061027061026b366004611be3565b610bf9565b6040516101989190611ce9565b34801561028957600080fd5b5061029d610298366004611bbf565b610eab565b6040516101989190611dab565b3480156102b657600080fd5b504761020c565b3480156102c957600080fd5b5061015a6102d8366004611e03565b610fd0565b3480156102e957600080fd5b5061020c60085481565b3480156102ff57600080fd5b5061031361030e366004611bbf565b6111e1565b6040516101989190611e45565b34801561032c57600080fd5b5061015a61033b366004611be3565b61124d565b34801561034c57600080fd5b5061020c60015481565b61015a610364366004611e89565b6112c2565b34801561037557600080fd5b50600054610389906001600160a01b031681565b6040516001600160a01b039091168152602001610198565b3480156103ad57600080fd5b506103c16103bc366004611bbf565b611706565b604051610198959493929190611ed5565b3480156103de57600080fd5b506103e76117c7565b604080519485526020850193909352918301526060820152608001610198565b34801561041357600080fd5b50610427610422366004611be3565b611829565b6040516101989190611f16565b34801561044057600080fd5b5061045461044f366004611be3565b6119d4565b6040516101989796959493929190611f85565b6000546001600160a01b0316331461049a5760405162461bcd60e51b815260040161049190611fd3565b60405180910390fd5b600081116104f55760405162461bcd60e51b815260206004820152602260248201527f476f616c20616d6f756e74206d7573742062652067726561746572207468616e604482015261020360f41b6064820152608401610491565b6001600160a01b03821661054b5760405162461bcd60e51b815260206004820152601760248201527f496e76616c6964206368617269747920616464726573730000000000000000006044820152606401610491565b866105985760405162461bcd60e51b815260206004820152601d60248201527f43616d706169676e206e616d652063616e6e6f7420626520656d7074790000006044820152606401610491565b600880549060006105a88361202a565b9190505550604051806101200160405280600854815260200189898080601f016020809104026020016040519081016040528093929190818152602001838380828437600092019190915250505090825250604080516020601f8a0181900481028201810190925288815291810191908990899081908401838280828437600092019190915250505090825250604080516020601f88018190048102820181019092528681529181019190879087908190840183828082843760009201829052509385525050506001600160a01b038516602080840191909152604080840186905260608401839052426080850152600160a0909401849052600854835260038252909120835181559083015190918201906106c490826120dc565b50604082015160028201906106d990826120dc565b50606082015160038201906106ee90826120dc565b5060808201516004820180546001600160a01b0319166001600160a01b0392831617905560a0830151600583015560c0830151600683015560e08301516007830155610100909201516008918201805460ff191691151591909117905554604051918416917f6fc7a1de3ccfc251acab8f2f41819123cd49f5da653ad8e7d5ca2f5e8ff7657290610784908c908c9087906121c5565b60405180910390a35050505050505050565b600360205260009081526040902080546001820180549192916107b890612059565b80601f01602080910402602001604051908101604052809291908181526020018280546107e490612059565b80156108315780601f1061080657610100808354040283529160200191610831565b820191906000526020600020905b81548152906001019060200180831161081457829003601f168201915b50505050509080600201805461084690612059565b80601f016020809104026020016040519081016040528092919081815260200182805461087290612059565b80156108bf5780601f10610894576101008083540402835291602001916108bf565b820191906000526020600020905b8154815290600101906020018083116108a257829003601f168201915b5050505050908060030180546108d490612059565b80601f016020809104026020016040519081016040528092919081815260200182805461090090612059565b801561094d5780601f106109225761010080835404028352916020019161094d565b820191906000526020600020905b81548152906001019060200180831161093057829003601f168201915b505050600484015460058501546006860154600787015460089097015495966001600160a01b0390931695919450925060ff1689565b8060008111801561099657506008548111155b6109b25760405162461bcd60e51b8152600401610491906121e9565b600082815260036020526040902060080154829060ff16610a0e5760405162461bcd60e51b815260206004820152601660248201527543616d706169676e206973206e6f742061637469766560501b6044820152606401610491565b600083815260036020526040902060048101546001600160a01b0316331480610a4157506000546001600160a01b031633145b610a7e5760405162461bcd60e51b815260206004820152600e60248201526d139bdd08185d5d1a1bdc9a5e995960921b6044820152606401610491565b6000816006015411610ac95760405162461bcd60e51b81526020600482015260146024820152734e6f2066756e647320746f20776974686472617760601b6044820152606401610491565b60068101805460009182905560048301546040519192916001600160a01b039091169083908381818185875af1925050503d8060008114610b26576040519150601f19603f3d011682016040523d82523d6000602084013e610b2b565b606091505b5050905080610b705760405162461bcd60e51b815260206004820152601160248201527015da5d1a191c985dd85b0819985a5b1959607a1b6044820152606401610491565b60048301546040805184815260208101899052428183015290516001600160a01b03909216917f3521a2719ff4d72c7248c054a43d4a68f2057d685ec0bb654262bbc2ffc3a41e9181900360600190a2505050505050565b60066020528160005260406000208181548110610be457600080fd5b90600052602060002001600091509150505481565b610c536040518061012001604052806000815260200160608152602001606081526020016060815260200160006001600160a01b031681526020016000815260200160008152602001600081526020016000151581525090565b81600081118015610c6657506008548111155b610c825760405162461bcd60e51b8152600401610491906121e9565b600360008481526020019081526020016000206040518061012001604052908160008201548152602001600182018054610cbb90612059565b80601f0160208091040260200160405190810160405280929190818152602001828054610ce790612059565b8015610d345780601f10610d0957610100808354040283529160200191610d34565b820191906000526020600020905b815481529060010190602001808311610d1757829003601f168201915b50505050508152602001600282018054610d4d90612059565b80601f0160208091040260200160405190810160405280929190818152602001828054610d7990612059565b8015610dc65780601f10610d9b57610100808354040283529160200191610dc6565b820191906000526020600020905b815481529060010190602001808311610da957829003601f168201915b50505050508152602001600382018054610ddf90612059565b80601f0160208091040260200160405190810160405280929190818152602001828054610e0b90612059565b8015610e585780601f10610e2d57610100808354040283529160200191610e58565b820191906000526020600020905b815481529060010190602001808311610e3b57829003601f168201915b505050918352505060048201546001600160a01b0316602082015260058201546040820152600682015460608201526007820154608082015260089091015460ff16151560a09091015291505b50919050565b610ee66040518060a0016040528060006001600160a01b03168152602001606081526020016000815260200160008152602001600081525090565b6001600160a01b03808316600090815260056020908152604091829020825160a081019093528054909316825260018301805492939291840191610f2990612059565b80601f0160208091040260200160405190810160405280929190818152602001828054610f5590612059565b8015610fa25780601f10610f7757610100808354040283529160200191610fa2565b820191906000526020600020905b815481529060010190602001808311610f8557829003601f168201915b5050505050815260200160028201548152602001600382015481526020016004820154815250509050919050565b3360009081526007602052604090205460ff16156110305760405162461bcd60e51b815260206004820152601760248201527f5573657220616c726561647920726567697374657265640000000000000000006044820152606401610491565b8061107d5760405162461bcd60e51b815260206004820152601860248201527f557365726e616d652063616e6e6f7420626520656d70747900000000000000006044820152606401610491565b60328111156110c25760405162461bcd60e51b8152602060048201526011602482015270557365726e616d6520746f6f206c6f6e6760781b6044820152606401610491565b6040518060a00160405280336001600160a01b0316815260200183838080601f0160208091040260200160405190810160405280939291908181526020018383808284376000920182905250938552505050602080830182905260408084018390524260609094019390935233825260058152919020825181546001600160a01b0319166001600160a01b0390911617815590820151600182019061116790826120dc565b506040828101516002830155606083015160038301556080909201516004909101553360008181526007602052829020805460ff1916600117905590517f89105a1c6a3c2fbd471255c66a31ccab604af5697f67d7e2e9a0028c5e4dbd91906111d5908590859042906121c5565b60405180910390a25050565b6001600160a01b03811660009081526006602090815260409182902080548351818402810184019094528084526060939283018282801561124157602002820191906000526020600020905b81548152602001906001019080831161122d575b50505050509050919050565b6000546001600160a01b031633146112775760405162461bcd60e51b815260040161049190611fd3565b8060008111801561128a57506008548111155b6112a65760405162461bcd60e51b8152600401610491906121e9565b506000908152600360205260409020600801805460ff19169055565b826000811180156112d557506008548111155b6112f15760405162461bcd60e51b8152600401610491906121e9565b600084815260036020526040902060080154849060ff1661134d5760405162461bcd60e51b815260206004820152601660248201527543616d706169676e206973206e6f742061637469766560501b6044820152606401610491565b600034116113ac5760405162461bcd60e51b815260206004820152602660248201527f446f6e6174696f6e20616d6f756e74206d75737420626520677265617465722060448201526507468616e20360d41b6064820152608401610491565b3360009081526007602052604090205460ff16611487576040805160a0810182523380825282516020808201855260008083528185019283528486018190526060850181905242608086015292835260059052929020815181546001600160a01b0319166001600160a01b039091161781559151909190600182019061143290826120dc565b50604082810151600280840191909155606084015160038401556080909301516004909201919091553360009081526007602052908120805460ff19166001179055815491906114818361202a565b91905055505b600980549060006114978361202a565b91905055506040518060e001604052806009548152602001336001600160a01b0316815260200186815260200134815260200185858080601f01602080910402602001604051908101604052809392919081815260200183838082843760009201829052509385525050426020808501919091526040938401839052600954835260048082529284902085518155908501516001820180546001600160a01b0319166001600160a01b03909216919091179055928401516002840155506060830151600383015560808301519082019061157190826120dc565b5060a0820151600582015560c0909101516006918201805460ff1916911515919091179055600086815260036020526040812090910180543492906115b7908490612220565b9091555050336000908152600560205260408120600281018054919234926115e0908490612220565b90915550506003810180549060006115f78361202a565b90915550503360009081526006602090815260408220600954815460018181018455928552928420909201919091558054349290611636908490612220565b909155505060008681526003602052604090206005810154600690910154106116b357857fd8d347acf5a316df55df4d039cac3621ab84f287c26bcbcccd3aa225099630116003600089815260200190815260200160002060060154426040516116aa929190918252602082015260400190565b60405180910390a25b336001600160a01b0316866009547f163baff62136a97bad60eaf840a626b8466be76c2320a1618001c80d71516a37348989426040516116f69493929190612239565b60405180910390a4505050505050565b600560205260009081526040902080546001820180546001600160a01b03909216929161173290612059565b80601f016020809104026020016040519081016040528092919081815260200182805461175e90612059565b80156117ab5780601f10611780576101008083540402835291602001916117ab565b820191906000526020600020905b81548152906001019060200180831161178e57829003601f168201915b5050505050908060020154908060030154908060040154905085565b60008080808060015b60085481116118135760008181526003602052604090206008015460ff161561180157816117fd8161202a565b9250505b8061180b8161202a565b9150506117d0565b5060015460025490969095509093504792509050565b6118746040518060e001604052806000815260200160006001600160a01b03168152602001600081526020016000815260200160608152602001600081526020016000151581525090565b60008211801561188657506009548211155b6118d25760405162461bcd60e51b815260206004820152601760248201527f446f6e6174696f6e20646f6573206e6f742065786973740000000000000000006044820152606401610491565b600082815260046020818152604092839020835160e0810185528154815260018201546001600160a01b03169281019290925260028101549382019390935260038301546060820152908201805491929160808401919061193290612059565b80601f016020809104026020016040519081016040528092919081815260200182805461195e90612059565b80156119ab5780601f10611980576101008083540402835291602001916119ab565b820191906000526020600020905b81548152906001019060200180831161198e57829003601f168201915b50505091835250506005820154602082015260069091015460ff16151560409091015292915050565b60046020819052600091825260409091208054600182015460028301546003840154948401805493956001600160a01b03909316949193611a1490612059565b80601f0160208091040260200160405190810160405280929190818152602001828054611a4090612059565b8015611a8d5780601f10611a6257610100808354040283529160200191611a8d565b820191906000526020600020905b815481529060010190602001808311611a7057829003601f168201915b50505050600583015460069093015491929160ff16905087565b60008083601f840112611ab957600080fd5b50813567ffffffffffffffff811115611ad157600080fd5b602083019150836020828501011115611ae957600080fd5b9250929050565b6001600160a01b0381168114611b0557600080fd5b50565b60008060008060008060008060a0898b031215611b2457600080fd5b883567ffffffffffffffff80821115611b3c57600080fd5b611b488c838d01611aa7565b909a50985060208b0135915080821115611b6157600080fd5b611b6d8c838d01611aa7565b909850965060408b0135915080821115611b8657600080fd5b50611b938b828c01611aa7565b9095509350506060890135611ba781611af0565b80925050608089013590509295985092959890939650565b600060208284031215611bd157600080fd5b8135611bdc81611af0565b9392505050565b600060208284031215611bf557600080fd5b5035919050565b6000815180845260005b81811015611c2257602081850181015186830182015201611c06565b506000602082860101526020601f19601f83011685010191505092915050565b60006101208b8352806020840152611c5c8184018c611bfc565b90508281036040840152611c70818b611bfc565b90508281036060840152611c84818a611bfc565b6001600160a01b03989098166080840152505060a081019490945260c084019290925260e0830152151561010090910152949350505050565b60008060408385031215611cd057600080fd5b8235611cdb81611af0565b946020939093013593505050565b602081528151602082015260006020830151610120806040850152611d12610140850183611bfc565b91506040850151601f1980868503016060870152611d308483611bfc565b9350606087015191508086850301608087015250611d4e8382611bfc565b9250506080850151611d6b60a08601826001600160a01b03169052565b5060a085015160c085015260c085015160e085015260e0850151610100818187015280870151915050611da18286018215159052565b5090949350505050565b602080825282516001600160a01b03168282015282015160a06040830152600090611dd960c0840182611bfc565b90506040840151606084015260608401516080840152608084015160a08401528091505092915050565b60008060208385031215611e1657600080fd5b823567ffffffffffffffff811115611e2d57600080fd5b611e3985828601611aa7565b90969095509350505050565b6020808252825182820181905260009190848201906040850190845b81811015611e7d57835183529284019291840191600101611e61565b50909695505050505050565b600080600060408486031215611e9e57600080fd5b83359250602084013567ffffffffffffffff811115611ebc57600080fd5b611ec886828701611aa7565b9497909650939450505050565b6001600160a01b038616815260a060208201819052600090611ef990830187611bfc565b604083019590955250606081019290925260809091015292915050565b602081528151602082015260018060a01b03602083015116604082015260408201516060820152606082015160808201526000608083015160e060a0840152611f63610100840182611bfc565b905060a084015160c084015260c0840151151560e08401528091505092915050565b87815260018060a01b038716602082015285604082015284606082015260e060808201526000611fb860e0830186611bfc565b60a08301949094525090151560c09091015295945050505050565b60208082526021908201527f4f6e6c79206f776e65722063616e2063616c6c20746869732066756e6374696f6040820152603760f91b606082015260800190565b634e487b7160e01b600052601160045260246000fd5b60006001820161203c5761203c612014565b5060010190565b634e487b7160e01b600052604160045260246000fd5b600181811c9082168061206d57607f821691505b602082108103610ea557634e487b7160e01b600052602260045260246000fd5b601f8211156120d757600081815260208120601f850160051c810160208610156120b45750805b601f850160051c820191505b818110156120d3578281556001016120c0565b5050505b505050565b815167ffffffffffffffff8111156120f6576120f6612043565b61210a816121048454612059565b8461208d565b602080601f83116001811461213f57600084156121275750858301515b600019600386901b1c1916600185901b1785556120d3565b600085815260208120601f198616915b8281101561216e5788860151825594840194600190910190840161214f565b508582101561218c5787850151600019600388901b60f8161c191681555b5050505050600190811b01905550565b81835281816020850137506000828201602090810191909152601f909101601f19169091010190565b6040815260006121d960408301858761219c565b9050826020830152949350505050565b60208082526017908201527f43616d706169676e20646f6573206e6f74206578697374000000000000000000604082015260600190565b8082018082111561223357612233612014565b92915050565b84815260606020820152600061225360608301858761219c565b90508260408301529594505050505056fea264697066735822122018c1fcff4eb146a6d7803fffe4cea7d9de058e4c57ef46ab8ff1948f80163c2f64736f6c63430008130033",
  "immutableReferences": {},
  "source": "// SPDX-License-Identifier: MIT\r\npragma solidity ^0.8.19;\r\n\r\n/**\r\n * @title CharityDonation\r\n * @dev Smart contract for managing transparent charity donations with on-chain records\r\n */\r\ncontract CharityDonation {\r\n    // ══════════════════════════════════════════════════\r\n    // STATE VARIABLES\r\n    // ══════════════════════════════════════════════════\r\n    \r\n    address public owner;\r\n    uint256 public totalDonationsReceived;\r\n    uint256 public totalDonors;\r\n    \r\n    // Campaign structure\r\n    struct Campaign {\r\n        uint256 id;\r\n        string name;\r\n        string category;\r\n        string description;\r\n        address payable charityAddress;\r\n        uint256 goalAmount;\r\n        uint256 raisedAmount;\r\n        uint256 createdAt;\r\n        bool active;\r\n    }\r\n    \r\n    // Donation structure\r\n    struct Donation {\r\n        uint256 id;\r\n        address donor;\r\n        uint256 campaignId;\r\n        uint256 amount;\r\n        string message;\r\n        uint256 timestamp;\r\n        bool processed;\r\n    }\r\n    \r\n    // User structure\r\n    struct User {\r\n        address walletAddress;\r\n        string username;\r\n        uint256 totalDonated;\r\n        uint256 donationCount;\r\n        uint256 joinedAt;\r\n    }\r\n    \r\n    // Mappings\r\n    mapping(uint256 => Campaign) public campaigns;\r\n    mapping(uint256 => Donation) public donations;\r\n    mapping(address => User) public users;\r\n    mapping(address => uint256[]) public userDonations;\r\n    mapping(address => bool) public registeredUsers;\r\n    \r\n    uint256 public campaignCount;\r\n    uint256 public donationCount;\r\n    \r\n    // ══════════════════════════════════════════════════\r\n    // EVENTS\r\n    // ══════════════════════════════════════════════════\r\n    \r\n    event CampaignCreated(\r\n        uint256 indexed campaignId,\r\n        string name,\r\n        uint256 goalAmount,\r\n        address indexed charityAddress\r\n    );\r\n    \r\n    event DonationReceived(\r\n        uint256 indexed donationId,\r\n        uint256 indexed campaignId,\r\n        address indexed donor,\r\n        uint256 amount,\r\n        string message,\r\n        uint256 timestamp\r\n    );\r\n    \r\n    event UserRegistered(\r\n        address indexed userAddress,\r\n        string username,\r\n        uint256 timestamp\r\n    );\r\n    \r\n    event CampaignGoalReached(\r\n        uint256 indexed campaignId,\r\n        uint256 totalRaised,\r\n        uint256 timestamp\r\n    );\r\n    \r\n    event FundsWithdrawn(\r\n        address indexed charityAddress,\r\n        uint256 amount,\r\n        uint256 campaignId,\r\n        uint256 timestamp\r\n    );\r\n    \r\n    // ══════════════════════════════════════════════════\r\n    // MODIFIERS\r\n    // ══════════════════════════════════════════════════\r\n    \r\n    modifier onlyOwner() {\r\n        require(msg.sender == owner, \"Only owner can call this function\");\r\n        _;\r\n    }\r\n    \r\n    modifier campaignExists(uint256 _campaignId) {\r\n        require(_campaignId > 0 && _campaignId <= campaignCount, \"Campaign does not exist\");\r\n        _;\r\n    }\r\n    \r\n    modifier isActiveCampaign(uint256 _campaignId) {\r\n        require(campaigns[_campaignId].active, \"Campaign is not active\");\r\n        _;\r\n    }\r\n    \r\n    // ══════════════════════════════════════════════════\r\n    // CONSTRUCTOR\r\n    // ══════════════════════════════════════════════════\r\n    \r\n    constructor() {\r\n        owner = msg.sender;\r\n        campaignCount = 0;\r\n        donationCount = 0;\r\n        totalDonationsReceived = 0;\r\n        totalDonors = 0;\r\n    }\r\n    \r\n    // ══════════════════════════════════════════════════\r\n    // USER MANAGEMENT\r\n    // ══════════════════════════════════════════════════\r\n    \r\n    function registerUser(string calldata _username) external {\r\n        require(!registeredUsers[msg.sender], \"User already registered\");\r\n        require(bytes(_username).length > 0, \"Username cannot be empty\");\r\n        require(bytes(_username).length <= 50, \"Username too long\");\r\n        \r\n        users[msg.sender] = User({\r\n            walletAddress: msg.sender,\r\n            username: _username,\r\n            totalDonated: 0,\r\n            donationCount: 0,\r\n            joinedAt: block.timestamp\r\n        });\r\n        \r\n        registeredUsers[msg.sender] = true;\r\n        emit UserRegistered(msg.sender, _username, block.timestamp);\r\n    }\r\n    \r\n    function getUser(address _userAddress) external view returns (User memory) {\r\n        return users[_userAddress];\r\n    }\r\n    \r\n    // ══════════════════════════════════════════════════\r\n    // CAMPAIGN MANAGEMENT\r\n    // ══════════════════════════════════════════════════\r\n    \r\n    function createCampaign(\r\n        string calldata _name,\r\n        string calldata _category,\r\n        string calldata _description,\r\n        address payable _charityAddress,\r\n        uint256 _goalAmount\r\n    ) external onlyOwner {\r\n        require(_goalAmount > 0, \"Goal amount must be greater than 0\");\r\n        require(_charityAddress != address(0), \"Invalid charity address\");\r\n        require(bytes(_name).length > 0, \"Campaign name cannot be empty\");\r\n        \r\n        campaignCount++;\r\n        campaigns[campaignCount] = Campaign({\r\n            id: campaignCount,\r\n            name: _name,\r\n            category: _category,\r\n            description: _description,\r\n            charityAddress: _charityAddress,\r\n            goalAmount: _goalAmount,\r\n            raisedAmount: 0,\r\n            createdAt: block.timestamp,\r\n            active: true\r\n        });\r\n        \r\n        emit CampaignCreated(campaignCount, _name, _goalAmount, _charityAddress);\r\n    }\r\n    \r\n    function getCampaign(uint256 _campaignId) \r\n        external \r\n        view \r\n        campaignExists(_campaignId) \r\n        returns (Campaign memory) \r\n    {\r\n        return campaigns[_campaignId];\r\n    }\r\n    \r\n    function deactivateCampaign(uint256 _campaignId) \r\n        external \r\n        onlyOwner \r\n        campaignExists(_campaignId) \r\n    {\r\n        campaigns[_campaignId].active = false;\r\n    }\r\n    \r\n    // ══════════════════════════════════════════════════\r\n    // DONATIONS\r\n    // ══════════════════════════════════════════════════\r\n    \r\n    function donate(\r\n        uint256 _campaignId,\r\n        string calldata _message\r\n    ) external payable campaignExists(_campaignId) isActiveCampaign(_campaignId) {\r\n        require(msg.value > 0, \"Donation amount must be greater than 0\");\r\n        \r\n        // Register user if not already registered\r\n        if (!registeredUsers[msg.sender]) {\r\n            users[msg.sender] = User({\r\n                walletAddress: msg.sender,\r\n                username: \"\",\r\n                totalDonated: 0,\r\n                donationCount: 0,\r\n                joinedAt: block.timestamp\r\n            });\r\n            registeredUsers[msg.sender] = true;\r\n            totalDonors++;\r\n        }\r\n        \r\n        // Create donation record\r\n        donationCount++;\r\n        donations[donationCount] = Donation({\r\n            id: donationCount,\r\n            donor: msg.sender,\r\n            campaignId: _campaignId,\r\n            amount: msg.value,\r\n            message: _message,\r\n            timestamp: block.timestamp,\r\n            processed: false\r\n        });\r\n        \r\n        // Update campaign raised amount\r\n        campaigns[_campaignId].raisedAmount += msg.value;\r\n        \r\n        // Update user stats\r\n        User storage user = users[msg.sender];\r\n        user.totalDonated += msg.value;\r\n        user.donationCount++;\r\n        \r\n        // Track user donations\r\n        userDonations[msg.sender].push(donationCount);\r\n        \r\n        // Update total\r\n        totalDonationsReceived += msg.value;\r\n        \r\n        // Check if goal reached\r\n        if (campaigns[_campaignId].raisedAmount >= campaigns[_campaignId].goalAmount) {\r\n            emit CampaignGoalReached(\r\n                _campaignId,\r\n                campaigns[_campaignId].raisedAmount,\r\n                block.timestamp\r\n            );\r\n        }\r\n        \r\n        emit DonationReceived(\r\n            donationCount,\r\n            _campaignId,\r\n            msg.sender,\r\n            msg.value,\r\n            _message,\r\n            block.timestamp\r\n        );\r\n    }\r\n    \r\n    function getDonation(uint256 _donationId) external view returns (Donation memory) {\r\n        require(_donationId > 0 && _donationId <= donationCount, \"Donation does not exist\");\r\n        return donations[_donationId];\r\n    }\r\n    \r\n    function getUserDonations(address _userAddress) external view returns (uint256[] memory) {\r\n        return userDonations[_userAddress];\r\n    }\r\n    \r\n    // ══════════════════════════════════════════════════\r\n    // WITHDRAWAL & MANAGEMENT\r\n    // ══════════════════════════════════════════════════\r\n    \r\n    function withdrawFunds(uint256 _campaignId) \r\n        external \r\n        campaignExists(_campaignId) \r\n        isActiveCampaign(_campaignId) \r\n    {\r\n        Campaign storage campaign = campaigns[_campaignId];\r\n        require(msg.sender == campaign.charityAddress || msg.sender == owner, \"Not authorized\");\r\n        require(campaign.raisedAmount > 0, \"No funds to withdraw\");\r\n        \r\n        uint256 withdrawAmount = campaign.raisedAmount;\r\n        campaign.raisedAmount = 0;\r\n        \r\n        (bool success, ) = campaign.charityAddress.call{value: withdrawAmount}(\"\");\r\n        require(success, \"Withdrawal failed\");\r\n        \r\n        emit FundsWithdrawn(campaign.charityAddress, withdrawAmount, _campaignId, block.timestamp);\r\n    }\r\n    \r\n    function getContractBalance() external view returns (uint256) {\r\n        return address(this).balance;\r\n    }\r\n    \r\n    function getContractStats() external view returns (\r\n        uint256 _totalDonations,\r\n        uint256 _totalDonors,\r\n        uint256 _activeCampaigns,\r\n        uint256 _contractBalance\r\n    ) {\r\n        uint256 activeCampaigns = 0;\r\n        for (uint256 i = 1; i <= campaignCount; i++) {\r\n            if (campaigns[i].active) activeCampaigns++;\r\n        }\r\n        \r\n        return (\r\n            totalDonationsReceived,\r\n            totalDonors,\r\n            activeCampaigns,\r\n            address(this).balance\r\n        );\r\n    }\r\n    \r\n    // Fallback function to receive ETH\r\n    receive() external payable {}\r\n}\r\n",
  "sourcePath": "C:\\Users\\suraj\\OneDrive\\Documents\\charity based aplication\\contracts\\CharityDonation.sol",
  "compiler": {
    "name": "solc",
    "version": "0.8.19+commit.7dd6d404.Emscripten.clang"
  },
  "schemaVersion": "3.4.16",
  "updatedAt": "2026-04-22T08:30:07.865Z",
  "devdoc": {
    "details": "Smart contract for managing transparent charity donations with on-chain records",
    "kind": "dev",
    "methods": {},
    "title": "CharityDonation",
    "version": 1
  },
  "userdoc": {
    "kind": "user",
    "methods": {},
    "version": 1
  }
}